:020000040000FA
:040000008031132810
:100008007E1480318B1E09280A2811280B1D0D2803
:100018000E2811288331B12380317E1009008031E8
:1000280015288331EC238031AB008331ED238031F7
:10003800AC00FD01A001A101A201A301A401A50139
:10004800A601A7017E1020008231782A0130F9002C
:100058000030FA000130F0000030F1008331042351
:10006800803120000D1E39283A2857286430F000C6
:100078000030F10083312C23803143280000200018
:100088000D0E0139F700F8017A087806031D4E288D
:100098007908770603195128522842280130F500BB
:1000A8000030F600EE290D1F5A285B287A286430A4
:1000B800F0000030F10083312C23803164280000E7
:1000C80020000D0E890C890C0139F700F8017A0817
:1000D8007806031D7128790877060319742875288E
:1000E80063280230F5000030F600EE290D1D7D284A
:1000F8007E289C286430F0000030F10083312C23E6
:1001080080318728000020000D0C890C0139F70088
:10011800F8017A087806031D9328790877060319E9
:100128009628972886280330F5000030F600EE2937
:100138000230F0000030F1008331042380312000C8
:100148000D1EA728A828C5286430F0000030F1004B
:1001580083312C238031B128000020000D0E013995
:10016800F700F8017A087806031DBC287908770695
:100178000319BF28C028B0280430F5000030F60065
:10018800EE290D1FC828C928E8286430F00000307F
:10019800F10083312C238031D228000020000D0E7D
:1001A800890C890C0139F700F8017A087806031DD3
:1001B800DF28790877060319E228E328D1280530D3
:1001C800F5000030F600EE290D1DEB28EC280A2971
:1001D8006430F0000030F10083312C238031F528A1
:1001E800000020000D0C890C0139F700F8017A088D
:1001F8007806031D012979087706031904290529BA
:10020800F4280630F5000030F600EE290330F0003F
:100218000030F10083310423803120000D1E1529A0
:10022800162933296430F0000030F10083312C2383
:1002380080311F29000020000D0E0139F700F80158
:100248007A087806031D2A297908770603192D29C3
:100258002E291E290730F5000030F600EE290D1F63
:100268003629372956296430F0000030F1008331EF
:100278002C2380314029000020000D0E890C890CA8
:100288000139F700F8017A087806031D4D29790825
:1002980077060319502951293F290830F500003005
:1002A800F600EE290D1D59295A2978296430F000E5
:1002B8000030F10083312C238031632900002000B5
:1002C8000D0C890C0139F700F8017A087806031D2E
:1002D8006F29790877060319722973296229093069
:1002E800F5000030F600EE290430F0000030F1008F
:1002F80083310423803120000D1E83298429A129FC
:100308006430F0000030F10083312C2380318D29D6
:10031800000020000D0E0139F700F8017A08780670
:10032800031D98297908770603199B299C298C298C
:10033800FE30F500FF30F600EE290D1FA429A5298F
:10034800C2296430F0000030F10083312C23803161
:10035800AE29000020000D0E890C890C0139F70028
:10036800F8017A087806031DBB297908770603196E
:10037800BE29BF29AD29F501F601EE290D1DC529B4
:10038800C629E4296430F0000030F10083312C23C1
:100398008031CF29000020000D0C890C0139F700AD
:1003A800F8017A087806031DDB297908770603190E
:1003B800DE29DF29CE29FD30F500FF30F600EE29D1
:1003C8000030F000F1008331042380319D30F500C6
:1003D800FF30F6000800F201F3017235203E860076
:1003E8008701403FF000413FF1007018FC29FF29C8
:1003F80022000C16012A22000C127235203E8600BB
:100408008701403FF000413FF100F0180C2A0F2A05
:1004180022008C15112A22008C117235203E86008C
:100428008701403FF000413FF10070191C2A1F2A44
:1004380022000C15212A22000C117235203E86005C
:100448008701403FF000413FF100F0192C2A2F2A84
:1004580022008C14312A22008C1000320032003223
:100468000032512A22000C170032003200320032CA
:1004780022000C13612A22008C170032003200324D
:10048800003222008C13612A22000C140032003240
:100498000032003222000C10612A7308003A031956
:1004A800562A612A7208003A0319362A013A0319B2
:1004B8003F2A033A0319482A612A003200320032DF
:1004C80000320130F2070030F33D00307302033090
:1004D80003197202031C712A722AF12922000C12D4
:1004E8008C110C118C1008008331CE23823183319A
:1004F800462382318331C12382318131EF21823118
:1005080080312A2082317608FC007508FB00FC1B2C
:100518008E2A8F2AAF2A7D080319932A942A982AAB
:10052800FD018331462382317C08F1007B08F0000D
:10053800833176238231003A0319A32AA42A842A14
:100548007C08F1007B08F0008231BF2282318131C2
:10055800EF218231842AFD307B06031DB72A7C0AED
:10056800031DB72AB82A842AFD0183314623823124
:10057800842A803113282000260827040319C52A55
:10058800C62AEE2A00302702033003192602031870
:10059800CE2ACF2AEE2A0330F2000030F300E42AF4
:1005A80072351C3E8600870172351E3E8400850127
:1005B800403F803F413F813F0130F2020030F33B32
:1005C80027087302031DEA2A260872020318ED2A77
:1005D800EE2AD42A00302702033003192602031812
:1005E800F62AF72AFF2A7108A1007008A000013036
:1005F800A6070030A73DC830AB000030AC000800AB
:1006080022008D120D108D108D1170037104031DC1
:100618000E2B0F2B112B8D162B2B0230700671040D
:10062800031D172B182B1A2B0D142B2B03307006B8
:100638007104031D202B212B232B8D142B2B04300D
:1006480070067104031D292B2A2B2B2B8D150800EE
:10065800F301F4013B2B0630F2003030890B322BCA
:10066800F20B322B00320130F3070030F43D7108F1
:100678007402031D412B70087302031C442B452B85
:100688002F2B0800F001F1017035203E860087010C
:100698000030C03FC13F0130F0070030F13D00306D
:1006A8007102033003197002031C5B2B5C2B482B6F
:1006B8002000A601A701080021001508C039173835
:1006C80095006430200095006430F2007208AA009A
:1006D8000B118B16EE30F0000330F1008331E2236A
:1006E800833108000230200026062704031D7D2BD5
:1006F8007E2B892B00302302043003192202031CAD
:10070800862B872B892B00308A2B0130080022008A
:100718008C018D01203021008C00D4308D00230005
:100728008D018C0124008D018C0121009517220078
:100738009D019E01080001302000AB020030AC3B57
:100748002B082C04031DA92BAA2BB02BC830AB00F7
:100758000030AC00FD01FD0A08000B1120002A083A
:100768009500280829040319BA2BBB2BC02B29088C
:100778008A0028080A008331080083316023833106
:100788009F30F0000330F1008331E22383310B17EF
:100798008B17080083318B2383318331DB2383312B
:1007A8008331E823833183316023833108007A3031
:1007B8002100990098012200960108007108200084
:1007C800A9007008A800080016302100970008004A
:0607D800C83400340800E3
:020000040001F9
:04000E00E4FFFFFE0E
:00000001FF
